:0200000480007A
:10000000FD6293820240FD12E39F02FE374100022F
:1000100013010100B7110002938101A1B7150080FF
:10002000938505C137160080130606C1B706000286
:100030009386062339A083A2050023A056009105CC
:100040009106E3EAC5FEB70500809385850B370668
:1000500000801306862EB70600029386060039A09C
:1000600083A2050023A0560091059106E3EAC5FE90
:10007000B705000293850523370600021306062301
:1000800021A023A005009105E3EDC5FEB702000203
:100090009382020C73905230B7000080E780600BAF
:1000A000B7000080E780600BB7000080E780802EFB
:0800B00073005010F5BF8280BF
:1000B8000000000000000000000000000000000038
:1000C8000000000000000000000000000000000028
:1000D8000000000000000000000000000000000018
:1000E8000000000000000000000000000000000008
:1000F80000000000000000000000000000000000F8
:1001080000000000000000000000000000000000E7
:1001180000000000000000000000000000000000D7
:1001280000000000000000000000000000000000C7
:1001380000000000000000000000000000000000B7
:1001480000000000000000000000000000000000A7
:100158000000000000000000000000000000000097
:100168000000000000000000000000000000000087
:100178006F004000130141F806C00AC20EC412C63F
:1001880016C81ACA1ECC22CE26D02AD22ED432D6CF
:1001980036D83ADA3EDC42DEC6C0CAC2CEC4D2C6BF
:1001A800D6C8DACADECCE2CEE6D0EAD2EED4F2D6AF
:1001B800F6D8FADAFEDC97000000938000058290FA
:1001C80082401241A2413242C2425243E243724447
:1001D80082541255A2553256C2565257E257725897
:1001E80086481649A649364AC64A564BE64B764CC7
:1001F800865C165DA65D365EC65E565FE65F1301D9
:10020800C1077300203001A0011106CE22CC26CAF6
:1002180000102326A4FE9710007EE78080A32A877B
:10022800B70705009C4385073357F702B757621095
:10023800938737DDB337F70213D767008D67938746
:10024800779C3307F702B7576210938737DDB337C8
:10025800F70293D4B7008327C4FE99C7A682FD127C
:10026800E39F02FEFD17FDFB0100F2406244D24409
:1002780005618280011106CE22CC26CA00102326F1
:10028800A4FE9710007EE780C09C2A87B707050068
:100298009C4385073357F702B7576210938737DDBA
:1002A800B337F70213D76700BA878A07BA97860762
:1002B8003E87B7576210938737DDB337F70293D479
:1002C800B7008327C4FE99C7A682FD12E39F02FEEA
:1002D800FD17FDFB0100F2406244D24405618280B3
:1002E800411106C622C4000805207928A1453745D2
:1002F80008000126A145B747080013850740D52CFB
:100308001305401FC520DDB75D7186C6A2C48008ED
:10031800232404FC232604FC232804FC232A04FCAD
:10032800232C04FC232E04FC232004FE232204FE99
:10033800232404FE232604FEBD472304F4FC894736
:100348002306F4FC232804FC8947232AF4FC232CE5
:1003580004FC232E04FC232004FE930700F8230248
:10036800F4FEA147A302F4FE232404FE232604FE80
:10037800930704FB130784FCBA853E85712D0100A1
:10038800B640264461618280011106CE22CC00105D
:10039800232004FE232204FE232404FE232604FE35
:1003A800B70705000567D8CFB70705000967D8CF95
:1003B800A1472320F4FE232204FE232404FE9307EE
:1003C80004FEBE85374508003D28930704FEBE8518
:1003D800B7470800138507403D200100F2406244FA
:1003E80005618280011106CE22CC00102326A4FECE
:1003F8000325C4FE97000082E780C0D50100F240C3
:10040800624405618280397106DE22DC8000232681
:10041800A4FC2324B4FC232604FE232404FE232264
:1004280004FE232004FE232E04FC8327C4FC375734
:100438000800130707806389E70637570800130782
:1004480007806366F708374708006389E70037477E
:100458000800130707406386E70295A8B717050049
:10046800938707C02326F4FEB7170500938747C074
:100478002324F4FEB7170500938787C02322F4FED0
:1004880089A8B71705009387C7C02326F4FEB717B6
:100498000500938707C12324F4FEB7170500938747
:1004A80047C12322F4FE35A0B7170500938787C1FB
:1004B8002326F4FEB71705009387C7C12324F4FE4B
:1004C800B7170500938707C22322F4FE19A08547B2
:1004D80021AA09A2832784FC9C43032704FE85469E
:1004E8003397E600F98F232EF4FC8327C4FDF1CF60
:1004F8008327C4FE9C43032704FE06078D463397D3
:10050800E6001347F7FF7D8F832784FCDC4393F6CF
:100518003700832704FE8607B397F6005D8F83278D
:10052800C4FE98C3832784FCD84391476306F70029
:10053800832784FCDC4395EB832784FCD8439147CD
:10054800631CF700832704FE0547B317F7003E87AF
:100558008327C4FCD8C711A8832704FE0547B3170F
:10056800F7003E878327C4FC98C7832784FE9C43F3
:10057800032704FE06078D463397E6001347F7FF67
:100588007D8F832784FCD447832704FE8607B3978F
:10059800F6005D8F832784FE98C3832744FE9C431F
:1005A800032704FE06078D463397E6001347F7FF37
:1005B8007D8F832784FC9447832704FE8607B3979F
:1005C800F6005D8F832744FE98C3832704FE8507C2
:1005D8002320F4FE832784FC9843832704FEB35723
:1005E800F700E39907EE81473E85F2506254216196
:1005F8008280011106CE22CC00102326A4FE2324DB
:10060800B4FE8327C4FE984B832784FE3D8F83273F
:10061800C4FE98CB0100F240624405618280797182
:1006280006D622D40018232EA4FC232604FE232455
:1006380004FE232204FE0327C4FD8947630CF70246
:100648000327C4FD894763E8E7048327C4FD99C7E6
:100658000327C4FD85476308F70235A8B7070600D6
:10066800D44BB70706007D771307F73F758FD8CBB4
:10067800814741A88567938707802324F4FE89472B
:100688002322F4FE19A8930700402324F4FE85478B
:100698002322F4FE19A08547ADA005A08327C4FE38
:1006A80085072326F4FE0327C4FEB7A70700938710
:1006B800F71163F4E7008D47A9A0B7070500985F15
:1006C800832744FEF98FF9DBB7070600D84BFD777F
:1006D8009387F73FB376F700B7070600032784FE32
:1006E800558FD8CB232004FE31A0832704FE85072D
:1006F8002320F4FE032704FE93073006E3D7E7FE22
:1007080081473E85B250225445618280797106D670
:1007180022D40018232EA4FC232CB4FC232604FE88
:10072800232404FE232204FE0327C4FDA1476300FB
:10073800F7060327C4FDA14763E2E7060327C4FDC4
:100748009147630FF7020327C4FD914763E8E70465
:100758000327C4FD85476308F7000327C4FD8947BD
:10076800630AF70025A885472324F4FE914723222E
:10077800F4FE3DA0232404FEA1472322F4FE0DA08D
:100788008D472324F4FE85472322F4FE11A88947C8
:100798002324F4FE89472322F4FE19A08547B5A037
:1007A8002DA08327C4FE85072326F4FE0327C4FE55
:1007B800B7A707009387F71163F9E700B7070500A4
:1007C800032784FED8D38D4789A0B7070500985F13
:1007D800832744FEF98FF1D7832784FD939627005A
:1007E800B7070500032784FE558FD8D3232004FEBE
:1007F80031A0832704FE85072320F4FE032704FE87
:1008080093073006E3D7E7FE81473E85B25022546E
:1008180045618280797106D622D40018232EA4FC63
:10082800232604FE232404FE232204FE0327C4FDFA
:1008380089476304F7040327C4FD894763E8E7048D
:100848008327C4FD99C70327C4FD8547630FF700B5
:1008580035A8B7070600944BB70706007D7713073E
:10086800F73F758F98CB814745A093070040232415
:10087800F4FE85472322F4FE21A885679387078025
:100888002324F4FE89472322F4FE19A08547ADA846
:1008980005A08327C4FE85072326F4FE0327C4FE8C
:1008A800B7A707009387F71163F4E7008D47A9A856
:1008B800B7070500985F832744FEF98FF9DBB70770
:1008C8000600984BFD779387F73FB376F700B70795
:1008D8000600032784FE558F98CBB707060023AC84
:1008E8000700B7070600054798CF232004FE31A06C
:1008F800832704FE85072320F4FE032704FE9307BD
:100908003006E3D7E7FE81473E85B2502254456161
:100918008280797106D622D40018232EA4FC2326BF
:1009280004FE232404FE232204FE8327C4FD89CF6A
:100938000327C4FD8547631FF70085472324F4FE7A
:1009480085472322F4FE09A8232404FE894723228D
:10095800F4FE19A08547A1A805A08327C4FE850732
:100968002326F4FE0327C4FEB7A707009387F711D1
:1009780063F4E7008D4725A8B7070500985F83272C
:1009880044FEF98FF9DBB7070500032784FED8D7A3
:10099800232004FE31A0832704FE85072320F4FECC
:1009A800032704FE93073006E3D7E7FE81473E8519
:1009B800B250225445618280011106CE22CC00102B
:1009C8002326A4FEB70705000327C4FE98C3010029
:1009D800F240624405618280011106CE22CC0010EB
:1009E8002326A4FEB70705000327C4FED8C30100C9
:1009F800F240624405618280011106CE22CC0010CB
:100A08002326A4FEB70705000327C4FE98C70100E4
:100A1800F240624405618280797106D622D40018BA
:100A2800232EA4FC232CB4FC232004FE232204FE42
:100A3800232404FE232604FEB7070600D84BB70775
:100A48000600719BD8CBB7070600984BB70706007E
:100A5800719B98CBB7070600DC4B93F637C083270A
:100A680084FD83C7C7018A0713F7C73FB707060086
:100A7800558FD8CBB70706009C4B93F6F7C383274F
:100A880084FD83C7D7019A0713F7073CB707060009
:100A9800558F98CB832784FDDC473E854936AA8746
:100AA8002320F4FE832784FD83C747003E878327DE
:100AB80084FD9C47BE853A859139AA872322F4FE96
:100AC800832784FD9C4B3E85C53D832784FDDC4BF5
:100AD8003E851937832784FD9C4F3E85313F832708
:100AE80084FD9C533E853D33AA872324F4FE832747
:100AF80084FDDC533E85313DAA872326F4FE8327F7
:100B080084FD83C70700858B89EBB7070600D84BA0
:100B1800B707060013672700D8CB832784FD83C750
:100B28000700898B89EBB7070600D84BB707060083
:100B380013671700D8CB832784FD83C70700918BE1
:100B480089EBB7070600984BB7070600136727001D
:100B580098CB832784FD83C70700A18B89EBB70750
:100B68000600984BB70706001367170098CB832732
:100B7800C4FD832504FE032644FE832684FE032742
:100B8800C4FE8CC3D0C394C7D8C70325C4FDB250D4
:100B9800225445618280011106CE22CC0010232602
:100BA80004FEB7070500DC538D8B0D476382E7040D
:100BB8000D476363F70409476381E7020947636DDB
:100BC800F70289C70547638EE7003DA0B757E801DC
:100BD800938707802326F4FE05A0A1672326F4FE49
:100BE80021A8B757E801938707802326F4FE29A098
:100BF800A1672326F4FE01008327C4FE3E85F24048
:080C08006244056182800000D6
:040000058000000077
:00000001FF
