:0200000480007A
:10000000FD6293820240FD12E39F02FE374100022F
:1000100013010100B71100029381019DB705008013
:10002000938505703706008013060670B706000238
:100030009386061F39A083A2050023A056009105D0
:100040009106E3EAC5FEB70500809385850B370668
:1000500000801306862AB70600029386060039A0A0
:1000600083A2050023A0560091059106E3EAC5FE90
:10007000B70500029385051F370600021306061F09
:1000800021A023A005009105E3EDC5FEB702000203
:100090009382020C73905230B7000080E780600BAF
:1000A000B7000080E780600BB7000080E780E03198
:0800B00073005010F5BF8280BF
:1000B8000000000000000000000000000000000038
:1000C8000000000000000000000000000000000028
:1000D8000000000000000000000000000000000018
:1000E8000000000000000000000000000000000008
:1000F80000000000000000000000000000000000F8
:1001080000000000000000000000000000000000E7
:1001180000000000000000000000000000000000D7
:1001280000000000000000000000000000000000C7
:1001380000000000000000000000000000000000B7
:1001480000000000000000000000000000000000A7
:100158000000000000000000000000000000000097
:100168000000000000000000000000000000000087
:100178006F004000130141F806C00AC20EC412C63F
:1001880016C81ACA1ECC22CE26D02AD22ED432D6CF
:1001980036D83ADA3EDC42DEC6C0CAC2CEC4D2C6BF
:1001A800D6C8DACADECCE2CEE6D0EAD2EED4F2D6AF
:1001B800F6D8FADAFEDC97000000938000058290FA
:1001C80082401241A2413242C2425243E243724447
:1001D80082541255A2553256C2565257E257725897
:1001E80086481649A649364AC64A564BE64B764CC7
:1001F800865C165DA65D365EC65E565FE65F1301D9
:10020800C1077300203001A0411122C406C62A8408
:100218009700007EE7802058B70705009C43130726
:10022800803E8507B357F502B3D7E7020D6713077A
:10023800779CB387E7022167130707D0B3D7E70294
:1002480019C4BE82FD12E39F02FE7D147DF8B24000
:10025800224441018280411122C406C62A849700A3
:10026800007EE7804053B70705009C431307803E94
:100278008507B357F502B3D7E7022947B387E702E3
:100288002167130707D0B3D7E70219C4BE82FD124E
:10029800E39F02FE7D147DF8B24022444101828032
:1002A8002A8311C62300B3007D16050365FE8280EC
:1002B8005D71130680028145280886C6D537BD477B
:1002C800230CF1008947230EF1003ED285679387FE
:1002D80007882C080A85231AF1020D26B6406161A9
:1002E8008280011106CE02C202C402C6B707050009
:1002F8000567D8CF0967D8CF8A85A1473745080051
:100308003EC08120374508008A8513050540152819
:10031800F24005618280411106C6593FD937A1458F
:1003280037450800052237450800A1451305054053
:10033800112A1305401F1120DDB71703008267003B
:1003480063E137470800930707402A886302F508E6
:10035800B7570800938707806302F50A630DE50A1B
:1003680005458280331E1F013376DE0129C683A32B
:10037800450088431393180033966F001346F6FF21
:1003880013F43300718D33146400418D88C3638B7B
:100398005302638C0302084303AEC500718D331EFC
:1003A8006E003365C50108C38842698E88453315D8
:1003B8006500498E90C2850833D51E0145F5324443
:1003C800410182802326C801F9B72324C801E1B777
:1003D800B716050037170500B7170500938646C1FD
:1003E800130707C19387C7C083AE05008148054F2F
:1003F8008D4F914233D51E0105ED8280B716050059
:1004080037170500B7170500938606C21307C7C13B
:10041800938787C1D1BFB716050037170500B717EF
:100428000500938686C0130747C0938707C06DBF32
:10043800331E1F013376DE0119E2850865BF4111BD
:1004480022C635B71C49AD8F1CC98280AA870545CD
:100458006384A7020947638FE70491EBB706060098
:10046800DC4A7D771307F73FF98FDCCA01458280A4
:100478007D1719EB0D4582809306004037A70700CA
:1004880013070712B7050500905D7D8E75D23706F4
:1004980006005C4A7D771307F73FF98FD58F411126
:1004A8005CCA02C613073006B2476359F700014514
:1004B80041018280856693860680C9B7B247850761
:1004C8003EC6DDB791476307F50263EAA700054713
:1004D8006304E50289476307F50405458280A1475F
:1004E800E31DF5FE89473E8501A87D1701EFC8D2B7
:1004F8000D45828085470D4537A70700130707126A
:10050800B7060500905E7D8E6DD28A05C98D4111B2
:10051800CCD202C613073006B2476358F70001452C
:1005280041018280A1470145C1BFB24785073EC648
:10053800E5B7AA8705456384A70209476383E706E9
:1005480091EBB70606009C4A7D771307F73FF98FB2
:100558009CCA014582807D1719EB0D458280930660
:10056800004037A7070013070712B7050500905D7D
:100578007D8E75D2370706001C4B7D761306F63F35
:10058800F18FD58F41111CCB232C070085471CCF39
:1005980002C613073006B2476359F7000145410107
:1005A80082808566938606806DBFB24785073EC602
:1005B800DDB7AA8709C90545638CA70282807D1724
:1005C80011EB0D458280894537A7070013070712ED
:1005D80037060500145EED8EFDD241115CD602C6C9
:1005E80013073006B2476357F7000145410182807F
:1005F800BE85D9BFB24785073EC6EDB7011126CAE9
:10060800B7040600DC4806CE22CC4AC84EC652C4FF
:1006180056C2F19BDCC89C482A89C845F19B9CC8F6
:10062800D84883C7C5012E84137737C08A07D98F66
:10063800DCC883C7D50198489A071377F7C393F79F
:10064800073CD98F9CC819350C44AA8A0345440035
:10065800953D1848B70705002A8A98C35848085096
:10066800D8C3184C98C7F135AA8948509937834799
:1006780004002A8793F6170089E6D44893E62600F3
:10068800D4C893F6270099E637060600544A93E63D
:10069800160054CA93F6470099E637060600144A2E
:1006A80093E6260014CAA18B99E7B70606009C4A70
:1006B80093E717009CCAF240624423205901232281
:1006C8004901232439012326E900D244B249224AA8
:1006D800924A4A85424905618280B7070500DC5382
:1006E800054721658D8BF9176376F7003755E801C3
:0806F80013050580828000005B
:040000058000000077
:00000001FF
